:100000000000012001030000290300002B03000071
:100010002D0300002F03000031030000000000004A
:10002000000000000000000000000000330300009A
:100030003503000000000000370300003903000012
:100040003B0300003B0300001D21000009230000CA
:100050007D2100003B0300003B0300003B03000048
:100060003B0300003B0300003B0300003B03000098
:100070003B0300003B0300003B0300003B03000088
:100080003B0300003B0300003B0300003B03000078
:100090003B0300003B0300003B0300003B03000068
:1000A0003B0300003B0300003B0300003B03000058
:1000B0003B0300003B0300000000000000000000C4
:1000C0003B0300003B0300003B0300003B03000038
:1000D0003B0300003B0300003B0300000000000066
:1000E0000000000000000000000000000000000010
:1000F0000000000000000000000000000000000000
:1001000000000000000000000000000000000000EF
:1001100000000000000000000000000000000000DF
:1001200000000000000000000000000000000000CF
:1001300000000000000000000000000000000000BF
:1001400000000000000000000000000000000000AF
:10015000000000000000000000000000000000009F
:10016000000000000000000000000000000000008F
:10017000000000000000000000000000000000007F
:10018000000000000000000000000000000000006F
:10019000000000000000000000000000000000005F
:1001A000000000000000000000000000000000004F
:1001B000000000000000000000000000000000003F
:1001C000000000000000000000000000000000002F
:1001D000000000000000000000000000000000001F
:1001E000000000000000000000000000000000000F
:1001F00000000000000000000000000000000000FF
:100200000348044B834202D0034B03B118477047A5
:100210000001002000010020000000000548064900
:10022000091A891001EBD171491002D0034B03B1B7
:100230001847704700010020000100200000000066
:1002400010B5064C237843B9FFF7DAFF044B13B11E
:100250000448AFF300800123237010BD000100208B
:1002600000000000384A000008B5054B1BB10549E5
:100270000548AFF30080BDE80840FFF7CFBF00BFDF
:100280000000000004010020384A0000154B002B3C
:1002900008BF134B9D46A3F5803A00218B460F46BD
:1002A0001348144A121A03F0FFFF0F4B002B00D023
:1002B00098470E4B002B00D09847002000210400E7
:1002C0000D000D48002802D00C48AFF3008003F069
:1002D000B9FF2000290002F089FF03F09FFF00BF53
:1002E00000000800000001200000000000000000E5
:1002F00000010020140800200000000000000000A1
:100300000649074A074B9B1A03DD043BC858D050E7
:10031000FBDC03F08BF8FFF7B9FF0000904A000008
:100320000000002000010020FEE7FEE7FEE7FEE7F8
:10033000FEE7FEE7FEE7FEE7FEE7FEE7F0B595B075
:10034000002415460F4608461E4601F02BFD384690
:1003500023460895082205A91A9D09960D950A9429
:100360008DF82C400C9401F081FD9DF814308DF82F
:100370001140DDE9061003F00302012ACDE9020174
:1003800027D0022A04D0384601F010FD15B0F0BD88
:10039000BDF81650C3F3C2038DF81030AD0908261E
:1003A000082D2C4628BF0824334622460EA938467D
:1003B00001F05CFD2D1B214608AB02AA0EA82644C5
:1003C00000F0D2FE002DEBD1384601F0EFFC15B065
:1003D000F0BDBDF81460059DC6F38316C3F3C204D7
:1003E000B2000EA9384608238DF81040C5F39525B4
:1003F00001F03CFD08AB324628460EA9009302AB43
:1004000000F03CFE384601F0D1FC15B0F0BD00BF55
:10041000014B01221A70704760010020704700BF35
:1004200000B583B0044B0093044A4023FFF786FFD6
:1004300003B05DF804FB00BF410400002001002070
:1004400038B50E480E4D03780E4CEB5C0025D2B249
:10045000257053B1043002F055FE58B90A4B1B7891
:1004600013B12378002BFCD038BD0C3002F00EFC09
:100470000028F3D000F0F6FEF0E700BF00000020F7
:1004800010080020600100201C01002030B5144835
:10049000144A0378D35C89B0BBB1043002F0CAFDC2
:1004A000114D0FCD6C460FC495E80F00062584E86A
:1004B0000F00002269460A48009501F0EFFD40B99F
:1004C0000A4B00221A7009B030BD0C3002F078FBE4
:1004D000E6E700F0C7FE054B00221A7009B030BDF8
:1004E0000000002010080020E44200001C01002051
:1004F00030B50E4D0FCD89B06C460FC495E80F0096
:10050000062584E80F000A4A0A480095694601F06A
:10051000C5FD20B9084B01221A7009B030BD00F0AA
:10052000A1FE054B01221A7009B030BDE442000063
:1005300011040000000000201C01002008B5FFF796
:10054000D7FF0421034800F009FD034B01225A7133
:1005500008BD00BF644A00001400002038B50C4BF1
:100560000C48002400250022FF21C3E90045C3F800
:100570001824996083F82024C3F8142401F0C4FBE4
:10058000044610B9044801F0A5FC204638BD00BF60
:1005900038020020744A000024430000A9B1124B25
:1005A00012495B1ADB081AD030B4114C22888242FF
:1005B00017D0002203E034F8225085420AD00132DD
:1005C0009342F8D1002030BC7047084A02EBC002C9
:1005D0001068704701EBC202106830BC70471846C3
:1005E00070470A46F8E700BF644A00003C4A000032
:1005F00000010020094B013903EBC00003290BD88F
:10060000DFE801F0020806040220704740797047D5
:100610000079704704207047002070473C4A000072
:100620002DE9F04F9D4CD4E900239A4289B000F0A7
:1006300030810023C4F81834BFF34F8FD4E901355B
:1006400003EA0501CA1C04EB820614F822205007B5
:100650001BD52768327802F00302012A00F00781D7
:10066000022A03D17288023303EB921303EA0501D5
:10067000D4F81804CA1C04EB820630B99F4240F239
:10068000048114F822205207E4D404EB81015A1C9F
:10069000C96802912A4004EB820201F00301D2688A
:1006A0000392022903F1020600F00281012900F001
:1006B0006581D4F810543DB12B6828469B68984753
:1006C000EB681D68002DF7D1754A764BD4F8088089
:1006D0009B1ADB080020019300F00CFED4E90132E4
:1006E000D4F8009013440133A3EB0903012B00F26B
:1006F00094816D4D2F1FA5F108060121284600F0B9
:1007000015FE384600F02AFE304600F027FED4E9F8
:10071000013E03EA0E01C81C04EB800214F820001D
:1007200010F0040000F0A08003F1020C92F800B079
:100730000BF0030BBBF1010FE24600F09080BBF120
:10074000020F7CD0CA1C04EB82020028EED104EB1D
:1007500081010133CA68059203EA0E0304EB8303A7
:1007600002F00302012AD96800F08780022A5CD1D6
:10077000BDF816309B0903334FEA114B0AEB930A7D
:10078000304600F0F7FD5946002856D02846C4F8F8
:1007900004A000F0CBFDD4E90132216813440133F9
:1007A0005B1A012BA9D90A4003320523023100202C
:1007B00044F82230216000F0A5FD00213A4800F005
:1007C000ABFD80F3100009F1010303EA0803BDF853
:1007D000042004EB830308EA090808F1030842EA4D
:1007E0000042DA6054F82820304B63F39F2222F451
:1007F0007F7323F0030343F0110344F8282024F807
:10080000283094F820343BB9D4E90030C01A18BF1E
:10081000012009B0BDE8F08FFFF702FF0028F3D0F8
:10082000FFF7FEFE0028F7D1EEE7304600F0A2FD0C
:100830004FF0000B59460028A8D12846A9E7538855
:100840000CEB93130EEA0301CA1C03F1020C14F81B
:100850002200E24604EB820200F0040075E71388F0
:10086000C3F383136344EDE703F1020A6FE73288B1
:100870000233C2F383121344F8E6BDF81430C3F315
:1008800083134FEA114B9A447AE7676009B0BDE8D9
:10089000F08F002009B0BDE8F08F00BF38020020C3
:1008A0003C4A00005C4A000054060020304300002F
:1008B000BDF80A305F484FEA9319B9F1500FC846A6
:1008C00028BF4FF0500868F38F1308F10801ADF806
:1008D0000A3001F01BFA074600283FF4EAAE01F0A7
:1008E00061FA082200230DEB0201384601F08AFA72
:1008F00025EA060301339B0098457BD9002B00F0C5
:100900008E8005EA0601A8EB0308DDB2033104EB93
:1009100081012A46082338465FFA88F801F072FA06
:10092000424605F108034449384601F06BFA09F1E3
:10093000030906EB9909D4F81834002B69D1D4F8CF
:10094000105465B1EB685A7928463946002A5CD0C4
:100950002B681B689847EB681D68002DF2D138465C
:1009600001F024FA002000F0C5FCD4F818340BB9CB
:10097000C4F80490002000F0C5FC45E7BDF808204D
:100980002C48C2F38313062B28BF062363F3891276
:1009900002339900ADF8082001F0B8F907460028A5
:1009A0003FF487AE01F0FEF9082200230DEB0201AF
:1009B000384601F027FABDF8083013F4707F36D0BE
:1009C0004FF0000805EA06014FEA880303310833B7
:1009D00004EB81010422384601F014FABDF8083016
:1009E00008F10108C3F3831306F1010943454E469C
:1009F000E8D8A0E705EA0601033104EB810142468D
:100A00000823384601F0FEF991E71D68002D99D1C1
:100A1000A5E7384601F0CAF9F6E64946C3E65FFAAB
:100A200088F208230449384601F0ECF97FE7B14623
:100A300081E700BF744A0000440200202DE9F04F16
:100A4000654C87B0804600200191A56800F052FCFB
:100A5000D4E9012326681A440132921B012A00F2CC
:100A6000B88004F21C4704F214490121384600F012
:100A70005DFC5A4800F072FC484600F06FFCD4E977
:100A8000013E03EA0E00C21C04EB820114F822208E
:100A900012F0040200F09A8003F1020C91F800B009
:100AA0000BF0030BBBF1010FE24600F08A80BBF1B3
:100AB000020F00F1030B74D004EB8B01002AEDD17F
:100AC00004EB80000133C268039203EA0E0304EBD7
:100AD000830302F00302012AD9685AD0022A55D1B1
:100AE000BDF80E309B0903334FEA114B0AEB930A12
:100AF000484600F03FFC5946002845D03846C4F827
:100B000004A000F013FCD4E9011322681944013158
:100B1000891A0129A9D91340033302320521002083
:100B200044F82310226000F0EDFB00212C4800F077
:100B3000F3FB80F31000731C2B4004EB83030004D1
:100B40003540033540EA1840D86014F8253068F382
:100B5000C50304F82530019B54F8252063F39F2238
:100B600022F4717323F0030343F0010344F82520BA
:100B700024F8253094F820341BB1FFF751FD0028EC
:100B8000FBD107B0BDE8F08F3846BAE74FF0000B55
:100B9000AEE7BDF80C30C3F383134FEA114B9A4410
:100BA000A6E74B880CEB93130EEA0300C11C03F17C
:100BB000020C14F82120E24604EB810102F0040249
:100BC0007CE70B88C3F383136344EDE703F1020A68
:100BD00076E732469FE700BF38020020500600202B
:100BE000540600202DE9F04F684C87B08046002065
:100BF000CDE90012A56800F07DFBD4E90123266849
:100C00001A440132921B022A00F2BE8004F21C47F1
:100C100004F214490121384600F088FB5C4800F0DA
:100C20009DFB484600F09AFBD4E9013E03EA0E0022
:100C3000C21C04EB820114F8222012F0040200F01E
:100C4000A08003F1020C91F800B00BF0030BBBF194
:100C5000010FE24600F09080BBF1020F00F1030BA0
:100C60007AD004EB8B01002AEDD104EB8000013334
:100C7000C268039203EA0E0304EB830302F003024B
:100C8000012AD96860D0022A5BD1BDF80E309B09D9
:100C900003334FEA114B0AEB930A484600F06AFB14
:100CA000594600284BD03846C4F804A000F03EFB5B
:100CB000D4E90113226819440131891A0229A9D9FA
:100CC0001340033303324521002044F823102260EF
:100CD00000F018FBB31C2B4004EB8303019A2D4852
:100CE000DA60002100F018FB80F31000731C2B4029
:100CF00004EB830300043540033540EA1840D86014
:100D000014F8253068F3C50304F82530009B54F827
:100D1000252063F39F2222F4717323F0030343F031
:100D2000410344F8252024F8253094F820341BB1E1
:100D3000FFF776FC0028FBD107B0BDE8F08F3846FE
:100D4000B4E74FF0000BA8E7BDF80C30C3F38313F2
:100D50004FEA114B9A44A0E74B880CEB93130EEA31
:100D60000300C11C03F1020C14F82120E24604EB3D
:100D7000810102F0040276E70B88C3F38313634416
:100D8000EDE703F1020A70E7324699E738020020E6
:100D900050060020540600202DE9F04F6C4C89B01D
:100DA00080460020CDE901120393A56800F0A2FA65
:100DB000D4E9012326681A440132921B032A00F267
:100DC000C58004F21C4704F214490121384600F0A2
:100DD000ADFA604800F0C2FA484600F0BFFAD4E924
:100DE000013E03EA0E00C21C04EB820114F822202B
:100DF00012F0040200F0A78003F1020C91F800B099
:100E00000BF0030BBBF1010FE24600F09780BBF142
:100E1000020F00F1030B00F0818004EB8B01002A2C
:100E2000ECD104EB80000133C268059203EA0E03A3
:100E300004EB830302F00302012AD96866D0022A78
:100E400061D1BDF816309B0903334FEA114B0AEB11
:100E5000930A484600F08EFA5946002851D0384689
:100E6000C4F804A000F062FAD4E90113226819441E
:100E70000131891A0329A8D913400333043285218B
:100E8000002044F82310226000F03CFAB21C2A40F3
:100E9000F31C2B4004EB820204EB8303029FD76018
:100EA0000021039A2C48DA6000F036FA80F3100033
:100EB000731C2B4004EB830300043540033540EAE8
:100EC0001840D86014F8253068F3C50304F82530BD
:100ED000019B54F8252063F39F2222F4717323F0C1
:100EE000030343F0810344F8252024F8253094F8C7
:100EF00020341BB1FFF794FB0028FBD109B0BDE8FB
:100F0000F08F3846AEE74FF0000BA2E7BDF8143083
:100F1000C3F383134FEA114B9A449AE74B880CEBC7
:100F200093130EEA0300C11C03F1020C14F82120F4
:100F3000E24604EB810102F0040270E70B88C3F380
:100F400083136344EDE703F1020A6AE7324693E74D
:100F5000380200205006002054060020F0B41B4E3A
:100F6000D6F810340746002B2DD0DC6825790021F7
:100F7000A942084617D0234603E0DB681A798A4263
:100F800011D01B68002BF8D1FB681871D6F810340B
:100F90009BB1DA68FB6812681A60D6F81034DB6817
:100FA0001F60F0BC7047092901F1010301D0194607
:100FB000DEE74FF0FF30F0BC7047C6F81074FA68F7
:100FC0001360F0BC70471846DEE700BF380200200F
:100FD00038B5094BD3F81044012583F820544CB19F
:100FE000E3685D71236820465B689847E3681C6886
:100FF000002CF5D138BD00BF3802002030B5C388C1
:1010000083B004460D4613BB217A05291DD0637AAF
:10101000A08873B9124B53F821400021FFF7BEFAA4
:10102000104903462246284603B0BDE8304000F090
:1010300011BAFFF7DFFA0C4B0C4953F82020284671
:1010400000F008FA217AA088E4E703B030BD084A2E
:1010500000920849084A284600F0FCF9D4E700BF8E
:10106000BC430000B043000048430000AC43000014
:10107000A44300008C430000844300002DE9F043AA
:1010800085B01D460C9C002381460E46174694F8F9
:101090000C80237321462846FFF7B0FF062F09D89E
:1010A000DFE807F0042E343B444F1F00494620463A
:1010B00000F0D0F92B7A052B05D06B7A5BB9274964
:1010C000204600F0C7F9204600F0B8F984F80C80FB
:1010D00005B0BDE8F083224A2249204600F0BAF963
:1010E000EDE7D6E90413F2680393B3680291CDE902
:1010F00000324946D6E90023204600F0ABF9D9E793
:1011000032684946204600F0A5F9D3E74946D6E9BA
:101110000023204600F09EF9CCE7B36800934946CF
:10112000D6E90023204600F095F9C3E7D6E902325C
:10113000019200934946D6E90023204600F08AF93F
:10114000B8E7D6E90321B3680291CDE900324946F8
:10115000D6E90023204600F07DF9ABE7804300008C
:10116000A4430000AC430000082900D970472DE9D2
:10117000F04F1D4683B000241B7B2C7307460E46A0
:101180001046294691460193DFF8C8A0DFF8C880D1
:10119000FFF734FF05E03A5D013400F05BF9082CFD
:1011A00009D0A64241462846F5D85146013400F000
:1011B00051F9082CF5D12249DFF8A0A0214CDFF825
:1011C000A080284600F046F94FF0000B0EE012F820
:1011D000081011F0970F08BF2E22214628460BF168
:1011E000010B00F037F9BBF1080F10D05E4505D9AF
:1011F00017F80B207E2AEAD92E22EEE75146284620
:101200000BF1010B00F026F9BBF1080FEED199F8B4
:101210000830052B02D099F809305BB90A492846F5
:1012200000F018F9284600F009F9019B2B7303B070
:10123000BDE8F08F054A0649284600F00BF9EDE7B6
:10124000784300007C43000080430000A44300007A
:10125000AC430000744300006C430000B84300003E
:101260003149000000B585B000230390194601AA5A
:1012700044F20100CDE9013300F004F805B05DF857
:1012800004FB00BF10B572B6FFF7A2FEFFF7C8F966
:101290000028FBD1104B114C1149E41AE408240436
:1012A00044F00100FFF7CAFB0E4B1B68DB0700D5BB
:1012B00000BE44F002000C49FFF7C0FBBFF34F8FA4
:1012C0000A490B4BCA6802F4E0621343CB60BFF3D8
:1012D0004F8F00BFFDE700BF3C4A00005C4A0000A2
:1012E00028440000F0ED00E03444000000ED00E090
:1012F0000400FA0572B6024A13680133136070479E
:10130000F4060020034A1368013B136003B962B678
:10131000704700BFF406002050E8002F0B4640E85D
:10132000003C9CF0000FF7D11046704750E8003F9A
:1013300003EB010240E8002C9CF0000FF6D11046B0
:10134000704700BF50E8003FA3EB010240E8002CCB
:101350009CF0000FF6D11046704700BF012350E803
:10136000002F42EA030C40E800C191F0000FF6D1D3
:1013700060467047002350E800CF0CEA030240E8C3
:10138000002191F0000FF6D160467047B8B130B43B
:10139000D0E90112521A0468D2B2531E2160DBB2A6
:1013A00042B101680A685C1E551C0D601370E3B2FF
:1013B000FF2BF6D103680020187130BC70470E2057
:1013C000704700BF38B504460020FFF793FFD4E90B
:1013D00000311A688A4215D9511E19602168A36824
:1013E0000868258A12F8012CE4681B1A0879DBB218
:1013F000984205FB024400D20B710020FFF782FFE8
:10140000204638BD00240020FFF77CFF204638BD71
:1014100038B5054600200C46FFF76CFF2A681368B4
:10142000591C1160E9682A8A641AB4FBF2F41C7032
:101430000020BDE83840FFF765BF00BF826842B1B9
:1014400010B5044643690168006998470023A3600A
:1014500010BD70470EB400B582B0039921B104AB42
:1014600001AA019300F0B2F802B05DF804EB03B0FA
:10147000704700BF2DE9F04F8A4683B0924516466B
:1014800005469846DDE90CB1C0F09C805346012723
:10149000B3FBF6F39E4207F10107F9D9474538BF80
:1014A000474611F00103AA68009302D1BBF1000F77
:1014B00068D1012403E008F1FF3806FB04F4B8F119
:1014C000010FF8D8BAFBF4F08642F6D9DFF8F890AD
:1014D0004FF00D0807E0B442B4FBF6F31CD3BAFB9F
:1014E000F3F0AA681C4619F8003029680A2B04FB9F
:1014F00010AA01EB020E02F1010028D0A8608EF8BC
:101500000030D5E901329A42E5D32846FFF796FF2D
:10151000B4FBF6F3B442E2D2009BABB1BBF1000FD7
:1015200012D0BB4510D92024AB682A68591CA96089
:10153000D454D5E901329A420BF1FF3B1ED2BBF1E4
:10154000000F01D0BB45EFD103B0BDE8F08FA8601C
:1015500001F80280D5E90120904204D22A6802EB0A
:10156000000E0130CAE728460193FFF767FFAA681B
:101570002968019B501C01EB020EBFE72846FFF7CC
:101580005DFFDCE78B0717D42024BB4591D92B687E
:10159000511CA9609C54D5E901329A420BF1FF3BE2
:1015A00005D2BBF1000F84D0BB45F0D181E72846BE
:1015B000FFF744FFAA68F4E7B8F1000F0CBF30242E
:1015C0002024E2E7012769E744440000002900F0F5
:1015D000E9822DE9F04F054685B091460C460E781C
:1015E000DFF81CA74FF00D0B13E0AB6828680A2E3C
:1015F00003F1010200EB030100F02681AA600E70E6
:10160000D5E901329A4280F011812678002E00F04F
:1016100014810134002E00F01081252EE5D12146E1
:10162000002711F8012B2D2A00F0E580302A00F068
:10163000E6802B2A00F0D6802A2A00F01181A2F140
:101640003006F3B2092B03D922E2A3F1300601469A
:10165000084606EB860310F8012BA2F13004092C92
:1016600002EB4303F1D92E2A00F006814FF0000867
:1016700002F0FB03682B01F1010405D114F8012BE2
:1016800002F0FB03682BF9D0253A532ABDD801A3F9
:1016900053F822F0291A00000B1600000B16000068
:1016A0000B1600000B1600000B1600000B160000B6
:1016B0000B1600000B1600000B1600000B160000A6
:1016C0000B1600000B1600000B1600000B16000096
:1016D0000B1600000B1600000B1600000B16000086
:1016E0000B1600000B1600000B1600000B16000076
:1016F0000B1600000B1600000B1600000B16000066
:101700000B1600000B1600000B1600000B16000055
:101710000B1600000B1600000B1600000B16000045
:101720000B1600000B1600000B1600000B16000035
:101730000B1600000B1600000B1600000B16000025
:101740000B1600000B1600000B1600000B16000015
:101750000B1600000B1600000B1600000B16000005
:10176000411A00000B1600000B1600000B160000BB
:101770000B1600000B1600000B1600000B160000E5
:101780000B1600000B1600000B16000007180000D7
:10179000A31900000B1600000B1600000B1600002A
:1017A0000B160000A31900000B1600000B1600001A
:1017B0000B1600000B1600000B1600000B160000A5
:1017C0001B1900000B1600000B160000C1180000CA
:1017D0000B160000A51800000B1600000B160000E9
:1017E000411A000047F004070C46214611F8012B6E
:1017F0002D2A7FF41BAF47F001070C46F5E747F0B1
:1018000002070C46F1E7D9F800301A1DC9F800208C
:101810001E78AB680A2E00F04F822A68591CA96016
:10182000D654D5E901329A42FFF4EFAE2846FFF7CD
:1018300005FE2678002E7FF4ECAE2B7B002B40F0CB
:10184000218105B0BDE8F08FAA6000F803B0D5E9AA
:1018500001329A4280F00E81296811440132CDE6AE
:10186000D9F800301A1DC9F8002062781E682E2AA7
:1018700004F102007FF4FAAE4A78A2F13003092B9A
:1018800001464FF000083FF6F3AE08EB880802EB84
:10189000480811F8012FA2F13003092BA8F13008F4
:1018A000F3D9E5E6D9F800301A1DC9F80020196807
:1018B0000197434600960A222846FFF7DBFDA4E67F
:1018C000D9F800301A1DC9F80020D3F80080FB07B2
:1018D00000F1EB80B8F1000F00F0EC81404602F01F
:1018E000EBFC0746BE4240F25E81002E00F05B81B9
:1018F000202102E0BE4200F05681AA682B68501CED
:10190000A8609954D5E90123934206F1FF36F1D33B
:101910002846FFF793FD2021ECE7D9F80020131D9E
:10192000C9F80030AB6829681768581C3022A860D5
:10193000CA54D5E90123934280F0F1802A68581CEB
:101940007821A860D154D5E90123934280F0E28048
:101950000F2F03D93A4612090F2AFCD84FF08056B0
:1019600006E00F2E4FEA16137FF64FAE1E46AB6809
:10197000B7FBF6F21AF802802868B8F10A0F06FBE6
:10198000127700EB030103F1010267D0AA6081F82E
:101990000080D5E901329A42E3D32846FFF74EFD95
:1019A000DFE7D9F800301A1DC9F80020196881EA6C
:1019B000E172A2EBE172092A4FF001000BDDDFF8C2
:1019C00044C300E01A46ACFB02E3632A00F10100C5
:1019D0004FEAD303F6DC4045034638BF4346029343
:1019E00007F00203002E57D00029C0F29D807A072D
:1019F00000F19A80002B00F09980B8F1000F40F0C0
:101A000095800029C0F237817A0700F1478107F0FD
:101A10000303022B00F0FE80CDE9006743460A2253
:101A20002846FFF727FDF0E5AB682A68581C2521FA
:101A3000A860D154D5E901329A42FFF4E6ADF5E64B
:101A4000D9F800301A1DC9F80020196801974346DB
:101A5000009610222846FFF70DFDD6E5AA6000F893
:101A600003B0D5E901329A4280F094802B6899182E
:101A700001328BE72846FFF7E1FCAB6829685A1C66
:101A80001944BBE5284605B0BDE8F04FFFF7D6BCCA
:101A9000084600262146E6E52BB1B8F1000F00F01C
:101AA0002881F807ADD40026ABE798F80020002A7B
:101AB00000F02381AB684746C8F10101D5F800E08A
:101AC0000A2A01EB07080EEB030C03F1010055D0C5
:101AD000A8608CF80020D5E90123934243D217F87F
:101AE000012F002AEAD146457FF68FAD202702E07C
:101AF00046453FF48AADAA682B68511CA9609F54E3
:101B0000D5E901329A4206F1FF36F1D32846FFF7B4
:101B100095FCEDE72846FFF791FCAB6818E72846EF
:101B2000FFF78CFCAB6809E7013E63E7F8073FF578
:101B300068AF002EB7D0029BB342BFF462AF202340
:101B4000AA68501CA86028688354D5E90102824223
:101B500006F1FF3680F0BF80002EA4D0029AB24278
:101B6000EED116464DE728460291FFF767FC17F8BD
:101B7000012F002AB7D0AB6802999FE7A8600EF842
:101B800003B0D5E90130984260D22B6803EB000C1A
:101B900001309DE72846FFF751FCA9682B684A1CD5
:101BA0001944F3E6704798F80060002E3FF42DAD1D
:101BB000AB6828680A2E03F1010200EB030111D083
:101BC000AA600E70D5E9012393421BD218F8016F69
:101BD000002E3FF41AAD28680A2E03F1010200EB33
:101BE0000301EDD1AA6000F803B0D5E901329A42B1
:101BF00039D2296811440132AA600E70D5E9012357
:101C00009342E3D32846FFF719FC18F8016F002E22
:101C1000CED1FAE4B8F1000F7FF4FEAE002E6AD008
:101C2000029BB342BFF4F8AE3023AA68501CA860F0
:101C300028688354D5E90102824206F1FF3651D269
:101C4000002E58D0029AB242EFD1E5E62846CDE9FF
:101C50000221FFF7F3FBAB682A68581C02EB030C68
:101C6000DDE9022134E72846FFF7E8FBAB68296885
:101C70005A1C1944A4E7AA68531CAB602B682D209A
:101C80009854D5E901329A42C1F10001FFF4BFAE88
:101C900028460391FFF7D2FB0399B8E6AA68531CC4
:101CA000AB602B682B209854D5E901329A42FFF49F
:101CB000AEAEEDE7474615E62A68591CA96002F862
:101CC00003B0D5E901239342FFF4A7AD2846FFF7FF
:101CD000B5FBAB68A1E528460391FFF7AFFB2023D6
:101CE000039939E728460391FFF7A8FB30230399AE
:101CF000A6E7464685E600268EE69046F3E600BF58
:101D000044440000CDCCCCCCFFF740BB2DE9F041E2
:101D1000058ACF1C043D2F440646B7FBF5F7FFF7B5
:101D200051FB002834D0FFB24FF48073013F0446CA
:101D3000C580066083802CD08046002509E0637949
:101D4000AF4203F101036371C8F8000006608046EA
:101D50001FD03046FFF736FB01350028EFD194F84D
:101D600005802768B8F1010316D03D460130834253
:101D70002D68FBD1B8F1000F0AD0002601E03C46E7
:101D80003F68214601362846FFF742FBB045F6D8AA
:101D900000242046BDE8F08121463846FFF738FB95
:101DA000F6E700BF04300121FFF7C0BA2DE9F0418A
:101DB000012104460430FFF7C5FAC0B208B1BDE8FE
:101DC000F08194F805802568B8F1010314D02E46FF
:101DD000013083423668FBD1B8F1000FEFD0002705
:101DE00001E02C462D68214601373046FFF710FBF5
:101DF000B845F6D8BDE8F08121462846BDE8F04157
:101E0000FFF706BB2DE9F8430546C688407914461E
:101E100006FB00F2043A04EB030C1F1D624538BFB9
:101E2000D41ABE428846B7FBF6F106FB117002D801
:101E300001392D68FCD1371AA74228BF27469CB12B
:101E40004FF000090430E41B28443A4608EB09012E
:101E500002F01CFAA642B9442D6837464FF0000044
:101E600028BF2746002CEDD1BDE8F8832DE9F843C3
:101E70000546C6884079144606FB00F2043A04EB96
:101E8000030C1F1D624538BFD41ABE428846B7FBFB
:101E9000F6F006FB107102D801382D68FCD1771AD4
:101EA000A74228BF27469CB14FF0000904312944BE
:101EB000E41B3A4608EB090002F0E8F9A642B944EF
:101EC0002D6837464FF0000128BF2746002CEDD182
:101ED000BDE8F8838268002393608268136182689A
:101EE00053618268D3608268536082681360704770
:101EF00030B585B0047885888DF800408468ADF8E9
:101F000004508DF80640C568074A084B8DF8075005
:101F1000D0E9040453F8213052F82110CDE902042D
:101F20006846984705B030BDF8060020000700203D
:101F30002DE9F04F824606783A4D3B4845F8263069
:101F40000C46497B40F8262081B0934669B9374A50
:101F5000BBF1000F334621460AF1040008BF0022FE
:101F600001B0BDE8F04F00F08DBA2368304A4FF061
:101F7000A04503F5E07340F20C6145F82310636857
:101F800003F5E073012745F82310236807FA03F3EC
:101F9000C5F80835636807FA03F3C5F80835236800
:101FA00003F5E07340F20D6145F82310636803F513
:101FB000E07342EA070845F823104FF48070C047E9
:101FC0004FF000096268D5F81035D340DB074FF4B5
:101FD000807022D4236807FA03F3C5F80C35C04794
:101FE000236807FA03F309F10109C5F808354FF42E
:101FF0008070C047B9F1090FE4D1626801254FF044
:10200000A04705FA02F2C7F80C254FF48070C047CC
:1020100063689D40C7F8085599E7B9F1000FEDD105
:1020200095E700BFF806002000070020F11E000021
:102030006044000030B585B0047845688DF80040F4
:10204000D0E90240064A074B039053F8213001952E
:102050008DF8084052F821106846984705B030BD09
:10206000080700200C07002030B585B004784568CB
:102070008DF80040D0E90240064A074B039053F820
:10208000213001958DF8084052F821106846984794
:1020900005B030BD080700200C070020F0B51A4B32
:1020A00006781A4D0C6991F81DE045F82640074660
:1020B000174803F806E040F826200C4694460FCC5B
:1020C00089B06D460FC594E80F0085E80F000496AF
:1020D000BEF1000F0BD0BCF1000F0E4A694607F1AC
:1020E000040008BF002200F0C9FE09B0F0BDBCF139
:1020F000000F094A694607F10C0008BF002200F0F2
:1021000095FC09B0F0BD00BF1008002008070020B2
:102110000C0700203520000069200000014B1B68DF
:10212000184700BF1007002038B50C4B984213D158
:1021300000200D46FFF7DEF8094B1C7924B1002082
:10214000FFF7E0F8112038BD012220461D601A710A
:10215000FFF7D8F8204638BD002038BD00200040E9
:1021600010070020034B984203D1034B00221A6052
:102170001A7170470020004010070020F0B54FF0A2
:1021800040238DB0D3F824215AB10022C3F8242172
:10219000D3F824210592059AD3F80421002A00F0EF
:1021A00086804FF04025564CD5F80431002B4CD09A
:1021B0000023C5F8043104F140070FCF07AED5F86E
:1021C00004C13F68CDF810C00FC694F86230049A7D
:1021D000376094F86420002B5AD094F84030012BDB
:1021E00073D0D5F84C150891022B71D1D5F83C3538
:1021F00009934FF040230021C3F86011D3F8600128
:1022000002900298C3F85C11D3F85C310393039BEE
:102210003C484FF040230021C3F80012E163C3F8AB
:1022200008034FF04021D1F8C434C1F8C4349907F1
:1022300027D501238DF818300AB984F86320D4E932
:102240000D3106A898470DB0F0BDC5F84831D5F856
:10225000482194F840300192019A002B3DD104F1BD
:1022600040070FCF07AE0FC694F864203B68336079
:10227000002AD6D1234BC5F80022E263C5F8083303
:10228000CFE713F0040318BF02238DF81830D3E70B
:10229000C5F86031D5F8601102910299C5F85C313A
:1022A000D5F85C310393039B002ABAD1B0E7144AF6
:1022B0000221D06BC3F80803D163D26BC3F80423A7
:1022C00001221A625A610DB0F0BDD5F83C35089371
:1022D0004FF04023D3F84C358AE74FF4007140F2B9
:1022E0000222084BC5F80012E263C5F80833E36B1D
:1022F000C5F804330123AB602B620DB0F0BD00BF05
:102300001807002002029C01F0B55B4BD3F8242192
:102310008DB052B10022C3F82421D3F824210592B4
:10232000059AD3F80421002A7FD0534D534CD5F899
:102330000431002B48D00023C5F8043104F10C0708
:102340000FCF07AED5F804C13F68CDF810C00FC657
:1023500094F82E30049A376094F83020002B55D032
:10236000237B012B6FD0D5F84C150891022B6DD132
:10237000D5F83C15404B09910021C3F86011D3F802
:10238000600102900298C3F85C11D3F85C310393AA
:10239000039B394B3A480021C3F80012A160C3F8EF
:1023A00008033549D1F8C434C1F8C434990726D597
:1023B00001238DF818300AB984F82F20D4E90031B0
:1023C00006A898470DB0F0BDC5F84831D5F84821AA
:1023D000237B0192019A002B3CD104F10C070FCF13
:1023E00007AE0FC694F830203B683360002AD8D17E
:1023F000234BC5F80022A260C5F80833D1E713F0DB
:10240000040318BF02238DF81830D4E7C5F86031F3
:10241000D5F8601102910299C5F85C31D5F85C31AC
:102420000393039B002ABCD1B3E7144A02219068AE
:10243000C3F8080391609268C3F8042301221A626A
:102440005A610DB0F0BDD5F83C3508930A4BD3F86E
:102450004C158FE74FF4007140F20222084BC5F88B
:102460000012A260C5F80833A368C5F8043301233D
:10247000AB602B620DB0F0BD0030004018070020AB
:1024800002029C012DE9F84F0779DFF8E890342625
:1024900006FB07F609EB060595F82D40002C57D1F1
:1024A0009A46314B0C46834653F8271000689046F5
:1024B000FFF73AFE002854D149F80680A860C5F815
:1024C00004A085F82F0085F83000637B85F8323052
:1024D00023684FF0A04203F5E07340F20C6142F82C
:1024E0002310636803F5E07342F82310D4E9002158
:1024F000DBF80030C3F80825C3F80C15A268C3F850
:102500002425B8F1000F1BD0DBF80020237B120B31
:1025100051B25B010029DBB21DDB01F1604101F525
:10252000614181F80033DBF80030104C1B0B5AB2CC
:10253000520903F01F03012101FA03F344F822308A
:10254000342303FB0797012387F82D30BDE8F88F6C
:102550000820BDE8F88F064902F00F0211440B76FF
:10256000E1E71120BDE8F88F6C44000000E100E0D5
:10257000FCEC00E0180700200379064902683420CB
:1025800000FB03130220062183F82D00C2F800157A
:10259000704700BF180700202DE9F04F8DB094461A
:1025A0009DF85840002C02F060444FF0000299461C
:1025B00014BF20231346B4F1005F0193CDE9072235
:1025C000CDE909220B9259D190F80480DFF844E15B
:1025D00005684E4BC5F80833342606FB08E696F826
:1025E0002F3003F0FF07002B5BD18DF81D10CDF8C5
:1025F0002090CDF828C007AC8A460FCC4FF0010BD5
:1026000086F82FB0C5F888A5C5F80471D5F804A1DF
:10261000CDF810A006F10C0AAAE80F00049BC5F83B
:102620002471D5F8243105932368CAF80030019B42
:10263000059A86F83070C5F85075C5F84075C5F82C
:1026400044C5C5F84895EBB94FF4007240F2022337
:10265000C5F800224FF48270B3603423012203FBDB
:1026600008F32A62AA605EF80310734401B39B6802
:10267000C5F8043300200DB0BDE8F08F10200DB078
:10268000BDE8F08F224B4FF48072C5F80022B36092
:10269000C5F84871D5F848310393039B4FF4A470F3
:1026A000DBE7B368C5F8043311200DB0BDE8F08F47
:1026B0001146284402E0D5F82421D2B90368002B42
:1026C000F9D0342303FB08EED5F8C434C5F8C4347C
:1026D00000228EF82F20BBB113F0020F48F2012028
:1026E00048F2022208BF032013F0040F18BF10465F
:1026F000C5E7C5F82431D5F824310693069B296235
:102700004FF482706961D4E71846B8E702029C0171
:1027100000020400180700202DE9F04F02F0604489
:102720008BB09146B4F1005F4FF00002CDF81A2053
:10273000CDF81620CDF81E20CDF82220ADF82620A9
:1027400057D10279DFF820B1046801924FF0340EBE
:102750000EFB02FE9A460BEB0E0C424BC4F80833FC
:102760009CF82F3003F0FF05002B68D14FF00108D3
:102770008DF81510CDF818A0CDF820908DF81480A4
:1027800005AF0E460FCF8CF82F80C4F88865C4F8CB
:102790000451D4F8046102960CF10C060FC6029B9A
:1027A000C4F82451D4F824310393396803988CF881
:1027B000305040F202234FF48052C4F8505531603B
:1027C000C4F84055C4F83495C4F838A5C4F80022BC
:1027D000CCF80830C4F82080C4F800805BF80E30D4
:1027E0005BB1DCF80830C4F8043328460BB0BDE810
:1027F000F08F10200BB0BDE8F08F434602E0D4F814
:10280000241121BBD4F80421002AF8D0019A3423E2
:1028100003FB02BBD4F8C434C4F8C43400228BF8E0
:102820002F20EBB113F0020F48F2012048F20222F0
:1028300008BF032013F0040F18BF1046D6E7DCF8DA
:102840000830C4F8043311200BB0BDE8F08FC4F891
:102850002421D4F824210492049A23626361D1E7ED
:102860001846C3E702029C011807002030B56D4AE4
:10287000D2F8043399058BB066D5D2F82431002BF9
:1028800062D00023C2F82431D2F8243103934FF4EC
:102890000171654B0398C2F8081393F8291009B920
:1028A000012151605F4902228DF81820D1F880245F
:1028B000C1F880249869D96809920022CDE90710EF
:1028C000C3E90622D3E9001406A8A047554AD2F866
:1028D0001C31C3B1544B186A5969884269D293F8C4
:1028E000280000F0FF04002863D1C2F81C41D2F890
:1028F0001C11029102999C68186A196A205C0131C6
:102900001962C2F81C05474AD2F84431D3B10021FC
:10291000454BC2F84411D2F8440193F829100090B5
:10292000009800295AD19A6962B10022586AD96880
:102930009A610122CDE907108DF8182006A8D3E985
:10294000001290470BB030BD364AD2F804335B0713
:10295000BCD5D2F80831002BB8D0334B9969002987
:102960003FD00021C2F80811D2F80811049104994F
:10297000D868596AD2F8182542545A6A99690132BE
:102980005A625A6A8A42A1D1DA691968002A31D09A
:10299000D8685D6A1C699A61079000220120DC609A
:1029A000DA615A628DF8180008955B6806A89847A6
:1029B0008CE71C4A0020C2F81C01D2F81C210192AD
:1029C000019A00299FD09A688DF8180008915861E3
:1029D000079206A8D3E90012904794E701211160FD
:1029E000A1E7C2F80811D2F8080105900598D2F8BD
:1029F0001825C6E793F8292012B90A4A0120506029
:102A0000084A4FF40170C2F80803586ADA6808905F
:102A10000024012007928DF818005A689C6106A8CE
:102A2000904753E700200040800700202DE9F04147
:102A3000DFF8888107792C2606FB078682B096F896
:102A40002A30002B40F085800C4605465749006827
:102A50001646FFF769FB002877D12368591C0CD074
:102A600001224FF0A04102FA03F3C1F808352368B0
:102A700003F5E073032241F8232063685A1C06D053
:102A800003F5E0734FF0A042002142F823102B68B9
:102A9000A269C3F82425217D637D2A680B43C2F80F
:102AA0006C35D4E900122B68C3F81425C3F80C1553
:102AB000237D012B57D02C2303FB07F308EB0302E4
:102AC0005660226948F8032066B32A68237F384C91
:102AD0000021C2F81C11D2F81C2100922A68009E25
:102AE000C2F84411D2F844112A6801910199C2F840
:102AF00004432A68120B51B25B010029DBB22CDBC4
:102B000001F1604101F5614181F800332B68294CE6
:102B10001B0B5AB2520903F01F03012101FA03F300
:102B200044F822302C232C6803FB07830022042561
:102B30000121C4F8005583F82A10C3E9062283F85E
:102B400029205A6102B0BDE8F081112002B0BDE831
:102B5000F081082002B0BDE8F081174902F00F02B1
:102B600011440B76D2E7A368591C06D003F5E07335
:102B70004FF0A042002142F82310E3685A1C0DD008
:102B800001224FF0A04102FA03F3C1F80835E368CF
:102B900003F5E073032241F82320E3682A68A16863
:102BA000C2F80835C2F8101585E700BF6D2800008F
:102BB0008000020000E100E0FCEC00E08007002063
:102BC000F8B52F4D047902682C2303FB0453002130
:102BD0005B68C2F8001583B103682A4AC3F808236A
:102BE0000368294E1B0B5AB25209203203F01F030F
:102BF000012101FA03F346F8223003684FF0FF3257
:102C0000D3F80CC5D3F81475D3F80815D3F81065AC
:102C1000C3F81425C3F80C2503689445C3F80825A8
:102C2000C3F8102506D00CF5E07C4FF0A04302223B
:102C300043F82C207B1C06D007F5E0774FF0A0432B
:102C4000022243F82720721C06D006F5E0764FF0EA
:102C5000A043022243F826204B1C06D001F5E07168
:102C60004FF0A043022243F821200068FFF77AFAD0
:102C70002C2303FB0454002384F82A306360F8BD3E
:102C8000800700208402020000E100E0F0B5314E30
:102C900005792C2303FB056385B05C69002C4DD1BD
:102CA0001C62996083F828405A610268C2F81C418E
:102CB000D2F81C11026802910121029F9160026802
:102CC000D3F808C0C2F81C41D2F81C110191019937
:102CD000D3F820E0196A5F681CF80EE00131196230
:102CE000C2F81CE517B1204605B0F0BD1A6A5C6950
:102CF0000168944203D819E093F828200ABBD1F860
:102D00001C21002AF8D0C1F81C71D1F81C210392B3
:102D1000039AD3F820E01A6A1CF80EE001321A6216
:102D2000C1F81CE51A6AA242E9D30168D1F81C3146
:102D3000002BFBD00123CB60002003E0112005B065
:102D4000F0BD0F202C2303FB056500236B6105B04C
:102D5000F0BD00BF80070020F0B5464BD3F824211A
:102D600089B0002A55D00021C3F82411D3F82421BA
:102D7000029202228DF81020029AD3F880043E4A73
:102D8000C3F880040790D3F83C05D3680690C2E9E5
:102D9000061105931168536804A89847354BD3F87A
:102DA00044214AB10021344AC3F84411D3F8440104
:102DB000916901900198D9B92E4BD3F82021AAB17D
:102DC0000021C3F82011D3F820012B4A009000986D
:102DD000506958B1D3F84C05936806908DF81010DF
:102DE0005161059304A8D2E90013984709B0F0BDDA
:102DF000D3F83C35D16806930024002501230591C2
:102E00008DF81030C2E90645D2E9001304A89847AE
:102E1000D2E7D3F810110029C0D0C3F81021D3F89D
:102E200010111548039103998169D3F83C458C42F0
:102E3000B4D1C569C768D0E900168DB1D3F800C216
:102E400085612CF02005C261C3F800520369C3609C
:102E50000122CDE905748DF8102004A8B0479DE744
:102E600001238561CDE905748DF8103004A8B047C1
:102E700094E700BF00200040B00700202DE9F04398
:102E80000779674E4FEAC70808EB070306EB830391
:102E900085B093F82030002B40F096800D46044614
:102EA000604900689146FFF73FF9002840F08880AC
:102EB0002B68591C0CD001224FF0A04102FA03F3F9
:102EC000C1F808352B6803F5E073032241F823208D
:102ED0006B685A1C06D003F5E0734FF0A042002146
:102EE00042F823102368AA69C3F82425297D6A7D46
:102EF00023680A43C3F86C25D5E900312268C2F87B
:102F00000C35C2F814152B7D012B67D008EB070296
:102F10009200B318C3F804902B69B350B9F1000FB5
:102F20003DD021682B7F404D0022C1F81021D1F8FF
:102F3000101100912168DDF800C0C1F82021D1F8FE
:102F4000201101912168DDF804C0C1F82421D1F8D5
:102F5000241102912168DDF808C0C1F84421D1F89C
:102F60004411226803910399C2F804532268120B9A
:102F700051B25B010029DBB22ADB01F1604101F5AE
:102F8000614181F800332368284D1B0B5AB2520966
:102F900003F01F03012101FA03F345F822304744EF
:102FA000226806EB8706002301240821C2F80015D9
:102FB00086F82040C6E90633736105B0BDE8F083AA
:102FC000112005B0BDE8F083082005B0BDE8F0830E
:102FD000174902F00F0211440B76D4E7AB68591C75
:102FE00006D003F5E0734FF0A042002142F8231011
:102FF000EB685A1C0DD001224FF0A04102FA03F3F6
:10300000C1F80835EB6803F5E073032241F823208B
:10301000EB682268A968C2F80835C2F8101575E790
:10302000B0070020592D00001003020000E100E06D
:10303000FCEC00E0F8B506792F4C0268F500AB19FE
:1030400004EB830300215B68C2F8001583B10368B9
:103050002A4AC3F808230368294F1B0B5AB25209A6
:10306000203203F01F03012101FA03F347F8223055
:1030700003684FF0FF32D3F80CE5D3F814C5D3F84A
:103080000815D3F81075C3F80C25C3F81425036888
:103090009645C3F80825C3F8102506D00EF5E07E46
:1030A0004FF0A043022243F82E20BCF1FF3F06D090
:1030B0000CF5E07C4FF0A043022243F82C207A1C50
:1030C00006D007F5E0774FF0A043022243F827200F
:1030D0004B1C06D001F5E0714FF0A043022243F8EB
:1030E0002120354404EB85040068FFF73BF80023FA
:1030F00084F820306360F8BDB007002010030200A0
:1031000000E100E001F06043B3F1005F2DD1F0B4C5
:103110000579244EEF007C1906EB840482B06369C4
:10312000002B39D16261A1600268C2F82031D2F867
:1031300020C10268CDF804C0DDF804C0C2F85831DF
:10314000D2F8582100920268DDF800C0D4F814C00B
:10315000C2F84415C2F848C502680121916062684E
:103160002AB1184602B0F0BC7047102070470368BF
:1031700000E0AAB9D3F82011D3F858210029F8D0DB
:10318000002A14BF0F2000207B1906EB83030022C6
:103190005A6102B0F0BC7047112002B0F0BC704719
:1031A0000F20F1E7B0070020F0B585B000210391B2
:1031B00002240B460A461B261A274FF0CC75694697
:1031C0008DF80C40CDE9006702950446FEF7B0FE8D
:1031D00020B9201DFFF7D0F905B0F0BDFEF742F889
:1031E000201DFFF7C9F905B0F0BD00BF2DE9F0477C
:1031F000002186B00846FDF7B1F9002840F0BE80F6
:10320000FDF79CF9734F744B7449FF1AFF083F0494
:1032100047F003073846FDF711FCFDF701FA0028D7
:10322000FBD16F48FFF7C0FF6D4800F0D9FA00F0FE
:1032300003FF0246002800F0C4806A493846FDF7C3
:10324000D1FCFDF7EDF90028FBD1674D674E45F045
:10325000010500F03BFF70B131463846FDF7EEFB4B
:103260004FF47A744FF47A40A847013CFAD100F049
:103270002DFF0028F0D15E493846FDF7DFFBFDF752
:10328000CFF90028FBD10DF101010DF10A0000F08A
:10329000D9FE002875D057493846FDF7CFFBFDF71A
:1032A000BFF90028FBD104A800F0D6FE002875D194
:1032B000049A51493846FDF795FCFDF7B1F900280D
:1032C000FBD102A90DF1060000F034FE00286AD1FE
:1032D000BDF8062049493846FDF784FCBDF80820B2
:1032E00047493846FDF77EFCFDF79AF90028FBD1E7
:1032F00000F0BCFE00285BD142493846FDF79EFB3A
:10330000FDF78EF90028FBD1064601A90DF1020058
:10331000DFF80CA1DFF80C91DFF80C8100F0C8FD9C
:1033200038BBBDF80430BDF8022049463846FDF7E9
:1033300033FDFDF775F90028FBD10136B6B2A8FBC5
:103340000623DB0A4FF4616202FB13639BB240F673
:103350000F62934231D04FF47A744FF47A40A84709
:10336000013CFAD101A90DF1020000F0A1FD0028F5
:10337000D7D051463846FDF761FBDAE7FDF772FF1B
:103380003EE7BDF80A2020493846FDF72BFC9DF8A2
:1033900001201E493846FDF725FC80E71C493846C8
:1033A000FDF74CFB89E71B493846FDF747FB9BE7D8
:1033B00019493846FDF742FBA2E703A800F002FED8
:1033C000C9E738461549FDF739FB4FF0FF3006B025
:1033D000BDE8F0875C4A00003C4A0000A8440000B9
:1033E00098440000BC44000090440000FC440000ED
:1033F00018450000644500008C450000B8450000F9
:10340000D04500000046000038450000504500004F
:103410009C450000E445000014460000D444000030
:103420004C4600002C460000C5B3A29130B4B84B06
:103430001B78062B20D0B74B1B68062B00F0818031
:10344000B54AD2F8883043F47003C2F88830BFF32D
:103450004F8FBFF36F8F4FF01023D3F80022002A55
:10346000C0F28681D3F80432002BC0F28181AB4BCD
:10347000AB4A1A6030BC7047AA4B1B681D07DAD1F3
:10348000A94B1B6803F0F002302A00F09B8003F088
:10349000E003402B00F09680A34B1B6803F0F00381
:1034A000302B00F0A080A04B1B6803F0F002302A04
:1034B00077D003F0E003402B73D09B4B1B6803F0E5
:1034C000F003302B00F01481974B1B6803F0F002DF
:1034D000302A52D003F0E003402B4ED0924B1B68B1
:1034E00003F0F003302B00F0F5808F4B1B6803F0E6
:1034F000F003302B00F0D7808B4B1B6803F0F003F8
:10350000502B7ED0884B1B6803F0F002302A23D06A
:1035100003F0E003402B1FD0834B1B6803F0F00245
:10352000302A03D003F0E003402B84D14FF08043D6
:10353000D3F80024D20744BF6FF00102C3F800247F
:1035400079E77A4B1B68062B7FF47AAF784A1368C9
:1035500043F48063136073E7764B6D4A1B681278FF
:10356000754903F04F03062A0B607FF464AF6D4B7F
:103570001B6819077FF45FAFCEE7654A11784FF0FB
:10358000804300220629C3F80C21C3F81021C3F898
:1035900038257FF450AF634B1B681B077FF44BAF9C
:1035A0009CE7664B5A4A1B6812786549C3F342335D
:1035B000062A0B607FF43FAF5A4B1B6819077FF454
:1035C0003AAF7AE75F4B524A1B6812785E49C3F301
:1035D0000423062A0B607FF42EAF524B1B681C0796
:1035E0007FF429AF58E74A4B584A1B785849116075
:1035F000062B7FF420AF4B4B1B6818077FF41BAFE3
:1036000051E74FF08052534BD2F80414C3F8201501
:10361000D2F80814C3F82415D2F80C14C3F82815EE
:10362000D2F81014C3F82C15D2F81414C3F83015BE
:10363000D2F81814C3F83415D2F81C14C3F8401586
:10364000D2F82014C3F84415D2F82414C3F848154E
:10365000D2F82814C3F84C15D2F82C14C3F850151E
:10366000D2F83014C3F85415D2F83414C3F86015E6
:10367000D2F83814C3F86415D2F83C14C3F86815AE
:10368000D2F840142248C3F86C15D2F844140278DA
:10369000C3F87015062A7FF4CEAE224B1B681807BC
:1036A0007FF4C9AE2EE71A4B2B4C1B782B492C48C4
:1036B0002C4A0525256001250D6000243F21062B9D
:1036C000046011607FF4B7AE164B1B681C077FF4D3
:1036D000B2AE11E70E4B244A1B780321062B116072
:1036E0007FF4A9AE0F4B1B681D077FF4A4AEFCE668
:1036F0001E4A0749D368097823F080730629D360EE
:103700007FF499AE074B1B681A077FF494AEDBE693
:10371000E00F00F03001001000ED00E01C00002080
:103720000090D003E40F00F0E80F00F03401001027
:103730003C17004058020010E40E00404402001004
:103740003C050040240300104035014074C0074090
:103750000DF0ADBA00C00040105600408856004041
:103760001856004014560040A0050040F0ED00E05F
:10377000184A0123C2F80435D2F80034002BFBD0DC
:103780004FF010231521134AC3F80012D2F8003469
:10379000002BFBD04FF0102315210E4AC3F8041262
:1037A000D2F80034002BFBD000230A49C2F80435BC
:1037B000D1F80034002BFBD0BFF34F8F0649074BE5
:1037C000CA6802F4E0621343CB60BFF34F8F00BFBF
:1037D000FDE700BF00E0014000ED00E00400FA0555
:1037E000014B1860704700BFD4070020704700BF2E
:1037F00010B5054B1C68D3B20A460146201DFEF7E2
:103800008BFF40B210BD00BFD407002030B5074B7E
:1038100083B01C680025D3B200950A460146201DDE
:10382000FEF7BAFE40B203B030BD00BFD40700209F
:1038300020B1034B800143F001031847704700BFDC
:10384000704600002DE9F04102EB420290B094B2C4
:103850000D4622466946FFF7CBFF00B2002840F034
:103860002C81002C00F029816946024605F1010CEB
:1038700091E05FFA83FE4FFA8EF3002BC0F29D8039
:103880004FEA4E03DBB24FFA83FEBEF1000FC0F2E7
:10389000A0805B00DBB24FFA83FEBEF1000FC0F2E6
:1038A000A4805B00DBB24FFA83FEBEF1000FC0F2D2
:1038B000A8805B00DBB24FFA83FEBEF1000FC0F2BE
:1038C000AC805B00DBB24FFA83FEBEF1000FC0F2AA
:1038D000B0805B00DBB24FFA83FEBEF1000F4FEA0F
:1038E0004303B8BF83F0310391F801E0DBB283EA10
:1038F0000E0313F0800F4FEA430340F0D6805FFAC7
:1039000083F84FFA88F3002BC0F2C6804FEA4803D1
:10391000DBB24FFA83F8B8F1000FC0F2B4805B005D
:10392000DBB24FFA83F8B8F1000FC0F2A3805B005E
:10393000DBB24FFA83F8B8F1000FC0F292805B005F
:10394000DBB24FFA83F8B8F1000FC0F281805B0060
:10395000DBB24FFA83F8B8F1000F4FEA430371DB93
:103960005FFA83F84FFA88F3002B4FEA4803B8BF99
:1039700083F03103DBB29F4240F09D8005F8126076
:103980000CF812E0013202EB42039BB29C4201F1BF
:10399000030140F292800E788F78F343DBB213F08C
:1039A000800F4FEA43033FF464AF83F031035BB20F
:1039B000002B5FFA83FEBFF663AF4FEA4E0E8EF028
:1039C000310E4FFA8EFEBEF1000F5FFA8EF3BFF696
:1039D00060AF4FEA430E8EF0310E4FFA8EFEBEF10D
:1039E000000F5FFA8EF3BFF65CAF4FEA430E8EF026
:1039F000310E4FFA8EFEBEF1000F5FFA8EF3BFF666
:103A000058AF4FEA430E8EF0310E4FFA8EFEBEF1E4
:103A1000000F5FFA8EF3BFF654AF4FEA430E8EF0FD
:103A2000310E4FFA8EFEBEF1000F5FFA8EF3BFF635
:103A300050AF4FEA430E8EF0310E4FFA8EFE5FFA12
:103A40008EF34AE783F031035BB25FFA83F88BE7CA
:103A50004FEA430888F031084FFA88F85FFA88F394
:103A600079E74FEA430888F031084FFA88F85FFA9F
:103A700088F368E74FEA430888F031084FFA88F87E
:103A80005FFA88F357E74FEA430888F031084FFAA6
:103A900088F85FFA88F346E74FEA480888F031086B
:103AA0004FFA88F85FFA88F335E783F031035BB2A9
:103AB0005FFA83F827E74FF0FF3010B0BDE8F081E0
:103AC0002DE9F04302EB420591B0ADB216460C462B
:103AD0002A466946FFF78CFE00B2002840F02F818D
:103AE000002D00F02F816946024604F1010E99E095
:103AF000DBB24FFA83F8B8F1000F4FEA4303C0F28C
:103B0000A880DBB24FFA83F8B8F1000F4FEA430305
:103B1000C0F2AB80DBB24FFA83F8B8F1000F4FEA86
:103B20004303C0F2AE80DBB24FFA83F8B8F1000F66
:103B30004FEA4303C0F2B180DBB24FFA83F8B8F129
:103B4000000F4FEA4303C0F2B480DBB24FFA83F8B0
:103B5000B8F1000F4FEA4303C0F2B780DBB24FFA6F
:103B600083F8B8F1000F4FEA4303B8BF83F0310385
:103B700091F80180DBB283EA080313F0800F4FEA6B
:103B8000430340F0D380DBB24FFA83F9B9F1000F61
:103B90004FEA4303C0F2C380DBB24FFA83F9B9F1B5
:103BA000000F4FEA4303C0F2B380DBB24FFA83F950
:103BB000B9F1000F4FEA4303C0F2A380DBB24FFA22
:103BC00083F9B9F1000F4FEA4303C0F29380DBB2EF
:103BD0004FFA83F9B9F1000F4FEA4303C0F2838033
:103BE000DBB24FFA83F9B9F1000F4FEA430373DBFD
:103BF000DBB24FFA83F95B00B9F1000FB8BF83F075
:103C00003103DBB29C4540F0988004F812700EF846
:103C10001280013202EB42039BB29D4201F103018B
:103C200040F290800F7891F802C0FB43DBB213F0B2
:103C3000800F4FEA43033FF45BAF83F031034FFA49
:103C400083F85FFA88F3B8F1000F4FEA4303BFF639
:103C500058AF83F031034FFA83F85FFA88F3B8F175
:103C6000000F4FEA4303BFF655AF83F031034FFA1D
:103C700083F85FFA88F3B8F1000F4FEA4303BFF609
:103C800052AF83F031034FFA83F85FFA88F3B8F14B
:103C9000000F4FEA4303BFF64FAF83F031034FFAF3
:103CA00083F85FFA88F3B8F1000F4FEA4303BFF6D9
:103CB0004CAF83F031034FFA83F85FFA88F3B8F121
:103CC000000F4FEA4303BFF649AF83F031034FFAC9
:103CD00083F85FFA88F344E783F031034FFA83F9FE
:103CE0005FFA89F387E783F031034FFA83F95FFACC
:103CF00089F378E783F031034FFA83F95FFA89F3A8
:103D000068E783F031034FFA83F95FFA89F358E7E4
:103D100083F031034FFA83F95FFA89F348E783F0C0
:103D200031034FFA83F95FFA89F338E783F03103FF
:103D30004FFA83F95FFA89F328E74FF0FF3011B0AB
:103D4000BDE8F0830023002EF9D019B2013334F816
:103D50001150DBB22A0A42EA05229E4224F81120C1
:103D6000F3D811B0BDE8F08300B583B04BBA02229E
:103D700001A9ADF80430FFF749FD03B05DF804FB7D
:103D8000F0B583B04CBA164601A90222ADF8044042
:103D900007461C46BDF82050FFF738FD00B2A0B919
:103DA000AEB938462A462146FFF74CFD68B965B1E1
:103DB000024613B2013234F81360D2B2310A41EA3A
:103DC0000621954224F81310F3D803B0F0BD304615
:103DD000FFF72EFD38462A462146FFF733FD00281F
:103DE000E5D0F2E72DE9F04F304E83B03378012B68
:103DF00000AF57D10289814606F120015820FFF714
:103E00005FFE834600284DD1B9F80830C7F804D0CA
:103E10005A0007326946D208A1EBC20295466846AD
:103E200063B15A46594601F11004013212B236F814
:103E3000144020F8114093421146F4DC591E1FFA39
:103E400081F80FFA88F4002C23DB621C00EB420A95
:103E500008E098471035013C230426F8150018D4D3
:103E6000B9F80830D9F804003AF802CD1B1B03F169
:103E70008043013BA8EB040550F823301B686046E3
:103E80002DB2002BE5D11035013C230426F815C0D6
:103E9000E6D50023D7F804D0337058460C37BD461A
:103EA000BDE8F08F4FF0FF3BF7E700BFD8070020D9
:103EB0002DE9F8431E4DAB699A885AB31E683468E1
:103EC000237B012B0BD0002304E056F82340277BF3
:103ED000012F04D00133DBB29342F6D31AD08846C7
:103EE00007466189D4F800905820FFF73DFF064649
:103EF00010B13046BDE8F88309F10500FFF798FCE2
:103F0000238963B92B8C3B806B8CA8F8003030463A
:103F1000BDE8F8834FF0FF363046BDE8F883012353
:103F200020462B70FFF75EFF0028EBD00646E0E747
:103F3000D80700202DE9F843204D214AAB691678B7
:103F40009A8862B31F683C68237BB3420CD000237D
:103F500005E057F8234094F80CC0B44504D0013371
:103F6000DBB29342F5D31AD0884607466189D4F86C
:103F700000905820FFF7F8FE064610B13046BDE825
:103F8000F88309F10500FFF753FC238963B92B8CF3
:103F90003B806B8CA8F800303046BDE8F8834FF0CA
:103FA000FF363046BDE8F883012320462B70FFF72B
:103FB00019FF0028EBD00646E0E700BFD807002035
:103FC0002C470000F8B51B4DAB699A883AB31968C5
:103FD0000C68237B022B0BD0002304E051F8234014
:103FE000267B022E04D00133DBB29342F6D316D0E7
:103FF0000646618927685820FFF7B6FE00B1F8BD74
:10400000781DFFF715FC238963B92B8C6A8C42EA73
:104010000342B2FA82F35B0932605842F8BD4FF0B6
:10402000FF30F8BD012320462B70FFF7DBFE002890
:10403000EBD0F8BDD8070020014B1868704700BFCF
:1040400094000020034B1A7C02801B8A1B0B0B7010
:1040500000207047D8070020034BD3E90223C0E9B2
:1040600000230020704700BFD8070020F8B5164E87
:10407000B3699A8822B319680C68237B53B1002373
:1040800003E051F82340207B20B10133DBB293429F
:10409000F7D315D0618927685820FFF765FE0546DC
:1040A00008B12846F8BD781DFFF7C2FB2389002B15
:1040B000F7D0012320463370BDE8F840FFF792BEE9
:1040C0004FF0FF352846F8BDD80700202DE9F04F06
:1040D0004E4C2646002183B00022002306F8201B08
:1040E000C4E90823FFF782FB0322009233464FF412
:1040F000FA7243F282615820FFF742FE054620BB68
:10410000A28C238C608C110A41EA02211A0242EA35
:104110001322030AA18443EA00236384606A228491
:10412000226A00BA12BA000C40EA02400121150CC2
:104130000091A06033464FF47A7242F22F0158206A
:10414000E560FFF71DFE054618B1284603B0BDE83F
:10415000F08F2F4BB4F820E0B3F804A02D4AA4F858
:1041600010E0A261BAF1000F22D0D3F800B0DFF85E
:10417000A8900EF480770EF01F085BF82060B589D8
:1041800095B1D6F808C000223CF812108EEA01035F
:1041900003EA090301323B4312B201F01F0101D1CE
:1041A00088450BD2AA42EFDB013000B25045E4DB78
:1041B0004FF0FF35284603B0BDE8F08FA661B18807
:1041C0000029F5D030680668327B22B908E050F843
:1041D0002360327B22B10133DBB29942F7D8E7D0BA
:1041E000718937685820FFF7BFFD05460028ACD11C
:1041F000781DFFF71DFB3389002BA6D00123304625
:10420000237003B0BDE8F04FFFF7ECBDD8070020E6
:104210000449000020490000E0F0FFFF08B5074B0B
:10422000044613B10021AFF30080054B1868836A80
:1042300003B19847204600F047F800BF0000000097
:10424000344A000070B50D4D0D4C641BA4100026BF
:10425000A64209D10B4D0C4C00F038F8641BA41099
:104260000026A64205D170BD55F8043B984701369B
:10427000EEE755F8043B98470136F2E7F8000020D6
:10428000F8000020F8000020FC0000200A449142C1
:1042900000F1FF3300D1704710B511F8014B03F85E
:1042A000014F9142F9D110BD02440346934200D11F
:1042B000704703F8011BF9E7034613F8012B002AA6
:1042C000FBD1181A01387047FEE700BFF8B500BFF0
:1042D000F8BC08BC9E467047F8B500BFF8BC08BCE7
:1042E0009E467047FFFFFFFFFFFFFFFFFFFFFFFF3F
:1042F000FFFFFFFF00000000000000000000D601EB
:1043000006010000210400008D0400001D040000CF
:10431000756172745F6C6F675F6261636B656E6419
:10432000000000005C0600207F000000DC0600208A
:104330004261636B656E647320666C757368656457
:104340000000000061707000A4430000D043000032
:1043500084430000D8430000E0430000E84300002D
:10436000F0430000F84300000044000020253032F4
:1043700078000000202020007C0000002563000061
:104380000D0A00001B5B313B33316D0025734C6F10
:1043900067732064726F7070656420282564292516
:1043A000730D0A001B5B306D0000000025730000D8
:1043B0003C25733E2025733A2000000000000000D9
:1043C000084400001044000018440000204400008D
:1043D0001B5B313B33306D001B5B313B33326D0077
:1043E0001B5B313B33336D001B5B313B33346D0062
:1043F0001B5B313B33356D001B5B313B33366D004E
:104400001B5B313B33376D006572726F72000000C9
:104410007761726E696E6700696E666F00000000FA
:104420006465627567000000466174616C206572A6
:10443000726F720053797374656D20726573657461
:1044400000000000303132333435363738394142DC
:10445000434445460000000000000000000000004A
:104460000338FDD870470000505253000923000064
:104470007D2100005457494D000000005541525421
:1044800000000000554152544500000000000000AB
:104490000338FDD8704700000000000000300040E5
:1044A00000000000010000005457492053504733DA
:1044B0003020737461727465642E0000534750336A
:1044C00030206472697665722076657273696F6EEA
:1044D00020257300666174616C3A204765747469C5
:1044E0006E67206472697665722076657273696F93
:1044F0006E206661696C65640000000053475020BF
:1045000073656E736F722070726F62696E6720667A
:1045100061696C65640000005347502073656E73D9
:104520006F722070726F62696E6720737563636566
:10453000737366756C000000466561747572652062
:104540007365742076657273696F6E3A2025750005
:1045500050726F6475637420747970653A202575A4
:104560000000000073677033305F6765745F6665D5
:1045700061747572655F7365745F76657273696F78
:104580006E206661696C6564210000005365726984
:10459000616C2049443A20256C6C64007367703369
:1045A000305F6765745F73657269616C5F69642011
:1045B0006661696C65642100457468616E6F6C208A
:1045C000726177207369676E616C3A20257500000F
:1045D000483220726177207369676E616C3A2025DA
:1045E000750000006572726F722072656164696E99
:1045F0006720726177207369676E616C73000000D9
:1046000073677033305F6961715F696E69742064CC
:104610006F6E650073677033305F6961715F696EDB
:104620006974206661696C656421000074564F43AB
:104630003A2025642028707062293B20434F326560
:10464000713A202564202870706D29006572726FA0
:10465000722072656164696E6720494151207661FC
:104660006C75657300000000000000000000000091
:104670000338FDD8704700000000000062617365D8
:104680006C696E6531000000000000000000000051
:10469000000000000000000000000000000000001A
:1046A000626173656C696E65320000000000000095
:1046B00000000000000000000000000000000000FA
:1046C00000000000636F325F6571000000000000B1
:1046D00000000000000000000000000000000000DA
:1046E0000000000000000000657468616E6F6C5F80
:1046F0007369676E616C000000000000000000003C
:1047000000000000000000000000000068325F733D
:1047100069676E616C00000000000000000000008E
:104720000000000000000000000000000A0000007F
:10473000102700002000002002001520026961718E
:104740005F6765745F626173656C696E6500000028
:104750000000000000000000000000000000000059
:1047600010270000280000200100B32016696171A5
:104770005F6765745F74766F635F696E636570749D
:104780006976655F626173656C696E650000000043
:104790001027000000000000000003200069617184
:1047A0005F696E69740000000000000000000000F6
:1047B00000000000000000000000000000000000F9
:1047C00050C300002C000020020008200169617124
:1047D0005F6D656173757265000000000000000088
:1047E00000000000000000000000000000000000C9
:1047F000102700000000000000001E200369617106
:104800005F7365745F626173656C696E650000005B
:104810000000000000000000000000000000000098
:104820001027000000000000000077200E69617171
:104830005F7365745F74766F635F626173656C69E3
:104840006E65000000000000000000000000000095
:10485000400D030034000020020050200A6D656105
:10486000737572655F7369676E616C730000000039
:104870000000000000000000000000000000000038
:104880001027000000000000000061200C73657418
:104890005F6162736F6C7574655F68756D6964697B
:1048A000747900000000000000000000000000001B
:1048B0000000000074564F4300000000000000009C
:1048C00000000000000000000000000000000000E8
:1048D0000000000048000020060000000C49000015
:1048E00001000000600000200800000010490000E6
:1048F00001000000800000200500000014490000B5
:10490000010000003C000020030000002000000027
:104910002100000009000000342E302E300000007D
:104920000000000000000000000000000000000087
:10493000002020202020202020202828282828206F
:104940002020202020202020202020202020202067
:1049500020881010101010101010101010101010CF
:1049600010040404040404040404041010101010BF
:104970001010414141414141010101010101010189
:1049800001010101010101010101010110101010DB
:10499000101042424242424202020202020202025B
:1049A00002020202020202020202020210101010AF
:1049B00020000000000000000000000000000000D7
:1049C00000000000000000000000000000000000E7
:1049D00000000000000000000000000000000000D7
:1049E00000000000000000000000000000000000C7
:1049F00000000000000000000000000000000000B7
:104A000000000000000000000000000000000000A6
:104A10000000000000000000000000000000000096
:104A20000000000000000000000000000000000086
:0C4A3000000000009800002000000000C2
:104A3C006844000000000000744400000000000006
:104A4C007C440000000000008444000000000000D2
:084A5C004443000000000303C5
:104A64000443000000000000104300001400002074
:104A7400640100202C020020340200206C0100207C
:044A84001800000016
:084A880004B8FF7F01000000EB
:104A90000000000000200040000000000020004056
:104AA0000000000000000000FF0000000090D003A4
:104AB000784600009C46000078460000B0480000A0
:104AC000C0460000E446000008470000E44800003B
:104AD000D4480000F448000090470000C0470000A0
:104AE00030470000F04700005048000080480000B8
:104AF00090470000C047000030470000F04700002A
:104B00006047000020480000504800008048000036
:104B100090470000C047000030470000F047000009
:104B2000504800001849000000000000000000008C
:104B30000000000000000000000000000000000075
:104B40000000000000000000000000000000000065
:104B50000000000000000000000000000000000055
:104B60000000000000000000000000000000000045
:104B70000000000000000000000000000000000035
:104B80000000000000000000690200004102000077
:0400000300000301F5
:00000001FF
